:100000000C9462000C948A000C948A000C948A0070
:100010000C948A000C948A000C948A000C948A0038
:100020000C948A000C948A000C948A000C948A0028
:100030000C948A000C948A000C948A000C948A0018
:100040000C9475030C948A000C9443030C941D03C8
:100050000C948A000C948A000C948A000C948A00F8
:100060000C948A000C948A000000000024002700F1
:100070002A0000000000250028002B0000000000DE
:1000800023002600290004040404040404040202DA
:100090000202020203030303030301020408102007
:1000A0004080010204081020010204081020000012
:1000B0000008000201000003040700000000000027
:1000C0000000BF0311241FBECFEFD8E0DEBFCDBFBD
:1000D00011E0A0E0B1E0E4E4FBE002C005900D9285
:1000E000AA32B107D9F721E0AAE2B1E001C01D921E
:1000F000A63EB207E1F710E0C2E6D0E004C02197C7
:10010000FE010E949505C136D107C9F70E94090476
:100110000C94A0050C940000CF92DF92EF92FF9216
:100120000F931F93CF93DF936C017A018B01C0E093
:10013000D0E0CE15DF0581F0D8016D918D01D6019B
:10014000ED91FC910190F081E02DC6010995892B7C
:1001500011F02196EECF7E01C701DF91CF911F9163
:100160000F91FF90EF90DF90CF900895089580E079
:1001700090E00895FC01538D448D252F30E0842FAD
:1001800090E0821B930B541710F0CF9608950197BF
:100190000895FC01918D828D981761F0828DDF01A9
:1001A000A80FB11D5D968C91928D9F5F9F73928F6A
:1001B00090E008958FEF9FEF0895FC01918D828D5F
:1001C000981731F0828DE80FF11D858D90E008952C
:1001D0008FEF9FEF0895FC01918D228D892F90E084
:1001E000805C9F4F821B91098F739927089585E347
:1001F00091E00E94EB0021E0892B09F420E0822F9E
:100200000895FC01848DDF01A80FB11DA35ABF4FD3
:100210002C91848D90E001968F739927848FA68905
:10022000B7892C93A089B1898C91837080648C9359
:10023000938D848D981306C00288F389E02D808108
:100240008F7D80830895EF92FF920F931F93CF933A
:10025000DF93EC0181E0888F9B8D8C8D981305C016
:10026000E889F989808185FD26C0F62E0B8D10E086
:100270000F5F1F4F0F731127E02E8C8DE8120CC0FB
:100280000FB607FCFACFE889F989808185FFF5CFA1
:10029000CE010E940101F1CF8B8DFE01E80FF11D0F
:1002A000E35AFF4FF0829FB7F8940B8FEA89FB89DE
:1002B000808180620AC09FB7F894EE89FF896083CD
:1002C000E889F98980818370806480839FBF81E0A1
:1002D00090E0DF91CF911F910F91FF90EF900895E3
:1002E000CF93DF93EC01888D8823C9F0EA89FB89DD
:1002F000808185FD05C0A889B9898C9186FD0FC0D4
:100300000FB607FCF5CF808185FFF2CFA889B989A8
:100310008C9185FFEDCFCE010E940101E7CFDF91E7
:10032000CF91089580E090E0892B29F00E94F7009A
:1003300081110C9400000895833081F028F48130FD
:1003400099F08230A1F008958730A9F08830B9F093
:100350008430D1F4809180008F7D03C08091800033
:100360008F7780938000089584B58F7702C084B51D
:100370008F7D84BD08958091B0008F7703C08091F8
:10038000B0008F7D8093B00008951F93CF93DF93CB
:10039000282F30E0F901E255FF4F8491F901E6562C
:1003A000FF4FD491F901EA57FF4FC491CC23C1F01C
:1003B000162F81110E949C01EC2FF0E0EE0FFF1F21
:1003C000EE58FF4FA591B4919FB7F894111104C056
:1003D0008C91D095D82302C0EC91DE2BDC939FBF8B
:1003E000DF91CF911F910895CF93DF9390E0FC01AF
:1003F000E656FF4F2491FC01EA57FF4F8491882372
:1004000061F190E0880F991FFC01E859FF4FC591F9
:10041000D491FC01EE58FF4FA591B491611109C030
:100420009FB7F8948881209582238883EC912E23AE
:100430000BC0623061F49FB7F8948881322F3095F9
:1004400083238883EC912E2B2C939FBF06C08FB7FC
:10045000F894E8812E2B28838FBFDF91CF910895E8
:100460003FB7F89480912F0190913001A091310114
:10047000B091320126B5A89B05C02F3F19F0019617
:10048000A11DB11D3FBFBA2FA92F982F8827820F1A
:10049000911DA11DB11DBC01CD0142E0660F771F6A
:1004A000881F991F4A95D1F708958F929F92AF9216
:1004B000BF92CF92DF92EF92FF921F93CF93DF9381
:1004C000EC012B8130E0F901E255FF4F8491F901F5
:1004D000E656FF4FF490F901EA57FF4F14911123AC
:1004E000A1F081110E949C01E12FF0E0EE0FFF1FAF
:1004F000E458FF4FA591B491EC91EF2131E020E059
:1005000009F430E0832F922F02C080E090E0282F82
:10051000217028833981231761F1892B41F50E94CD
:1005200030024B015C018AE0C82ED12CE12CF12C69
:100530000E943002DC01CB0188199909AA09BB0984
:10054000883E9340A105B10598F321E0C21AD10875
:10055000E108F10888EE880E83E0981EA11CB11C0A
:10056000C114D104E104F10419F781E003C081E072
:100570008A8380E098819983DF91CF911F91FF90CA
:10058000EF90DF90CF90BF90AF909F908F900895A5
:10059000009769F0FC0101900020E9F73197AF0165
:1005A000481B590BBC0185E391E00C948C0080E062
:1005B00090E008958F929F92AF92BF920F931F93F6
:1005C000CF93DF93CDB7DEB7A1970FB6F894DEBF18
:1005D0000FBECDBF19A2423008F44AE08E010F5D74
:1005E0001F4F842E912CA12CB12CA50194010E94A7
:1005F0007305E62FB901CA0101501109EA3014F45C
:10060000E05D01C0E95CD801EC93232B242B252B62
:1006100061F7C8010E94C802A1960FB6F894DEBF28
:100620000FBECDBFDF91CF911F910F91BF90AF90C3
:100630009F908F9008950E949B051F920F920FB676
:100640000F9211242F933F934F935F936F937F9358
:100650008F939F93AF93BF93EF93FF9385E391E0C5
:100660000E940101FF91EF91BF91AF919F918F91F6
:100670007F916F915F914F913F912F910F900FBE9E
:100680000F901F9018951F920F920FB60F92112482
:100690002F938F939F93EF93FF93E0914501F091F8
:1006A00046018081E0914B01F0914C0182FD12C026
:1006B000908180914E018F5F8F7320914F0182173F
:1006C00051F0E0914E01F0E0EB5CFE4F958F80938E
:1006D0004E0101C08081FF91EF919F918F912F91E9
:1006E0000F900FBE0F901F9018951F920F920FB68C
:1006F0000F9211242F933F938F939F93AF93BF93A8
:1007000080912B0190912C01A0912D01B0912E018F
:1007100030912A0123E0230F2D3720F40196A11DEB
:10072000B11D05C026E8230F0296A11DB11D20931F
:100730002A0180932B0190932C01A0932D01B0935B
:100740002E0180912F0190913001A0913101B09143
:1007500032010196A11DB11D80932F0190933001AC
:10076000A0933101B0933201BF91AF919F918F91CE
:100770003F912F910F900FBE0F901F901895E5E3BA
:10078000F1E01382128288EE93E0A0E0B0E084836F
:100790009583A683B78384E091E09183808385EC81
:1007A00090E09587848784EC90E09787868780EC3B
:1007B00090E0918B808B81EC90E0938B828B82EC2C
:1007C00090E0958B848B86EC90E0978B868B118ED6
:1007D000128E138E148E82E08093E50160E00E94F9
:1007E000F4018AE08093E10160E00E94F4018CE072
:1007F0008093DD0160E00E94F40188E08093D901DC
:1008000060E00E94F40187E08093D50160E00C94E1
:10081000F401789484B5826084BD84B5816084BD20
:1008200085B5826085BD85B5816085BD80916E008E
:10083000816080936E0010928100809181008260BF
:1008400080938100809181008160809381008091FC
:1008500080008160809380008091B10084608093EB
:10086000B1008091B00081608093B00080917A00E7
:10087000846080937A0080917A00826080937A000D
:1008800080917A00816080937A0080917A008068FC
:1008900080937A001092C100E0914501F0914601E9
:1008A00082E08083E0914101F09142011082E09169
:1008B0004301F09144018FEC808310924D01E0914F
:1008C0004901F0914A0186E08083E0914701F0916F
:1008D0004801808180618083E0914701F091480167
:1008E000808188608083E0914701F0914801808198
:1008F00080688083E0914701F091480180818F7D7D
:10090000808361E083E00E94F40161E086E00E9460
:10091000F40161E085E00E94F40161E083E00E945F
:10092000F40161E086E00E94C50161E085E00E947B
:10093000C50161E083E00E94C5011092340106E028
:1009400082EE91E00E9455028823D9F082E191E085
:100950000E94C8028CE191E00E94C802809134019B
:10096000833018F48F5F809334016091340170E01C
:1009700080E090E04AE00E94DA028CE191E00E947F
:10098000C8028EED91E00E9455028823D9F08FE1D4
:1009900091E00E94C8028CE191E00E94C80280911F
:1009A0003401882319F0815080933401609134011F
:1009B00070E080E090E04AE00E94DA028CE191E091
:1009C0000E94C8028AED91E00E945502882351F0EE
:1009D00061E085E00E94C50161E083E00E94C501FD
:1009E0000093330186ED91E00E945502882359F06F
:1009F00061E086E00E94C50161E083E00E94C501DC
:100A000085E08093330182ED91E00E9455028823B6
:100A100059F061E085E00E94C50161E086E00E9436
:100A2000C50183E080933301C091340185E5C89FFF
:100A3000E00111241091330161E0812F0E94F40143
:100A4000209709F447C0CF3FD10509F445C0E12FF5
:100A5000F0E0E255FF4FE491E330F9F048F4E13083
:100A6000B9F0E230A1F584B5806284BDC8BD38C05C
:100A7000E730E9F0E83019F1E43049F58091800081
:100A8000806280938000D0938B00C0938A0028C03E
:100A900084B5806884BDC7BD23C080918000806814
:100AA00080938000D0938900C093880019C0809102
:100AB000B00080688093B000C093B30011C08091F3
:100AC000B00080628093B000C093B40009C0C03809
:100AD000D10514F460E001C061E0812F0E94C501DE
:100AE0000E9492012DCFA1E21A2EAA1BBB1BFD0171
:100AF0000DC0AA1FBB1FEE1FFF1FA217B307E407FD
:100B0000F50720F0A21BB30BE40BF50B661F771F54
:100B1000881F991F1A9469F7609570958095909534
:100B20009B01AC01BD01CF010895EE0FFF1F0590A1
:100B3000F491E02D099481E090E0F8940C94A005E4
:040B4000F894FFCF57
:100B44000000000023018C00BA007001EB00C90012
:100B5400DD0050696361646F205550000D0A005038
:0A0B6400696361646F204C6F770035
:107E0000112484B714BE81FFF0D085E080938100F7
:107E100082E08093C00088E18093C10086E0809377
:107E2000C20080E18093C4008EE0C9D0259A86E02C
:107E300020E33CEF91E0309385002093840096BBD3
:107E4000B09BFECF1D9AA8958150A9F7CC24DD24C4
:107E500088248394B5E0AB2EA1E19A2EF3E0BF2EE7
:107E6000A2D0813461F49FD0082FAFD0023811F036
:107E7000013811F484E001C083E08DD089C08234E0
:107E800011F484E103C0853419F485E0A6D080C0E4
:107E9000853579F488D0E82EFF2485D0082F10E0AE
:107EA000102F00270E291F29000F111F8ED06801E7
:107EB0006FC0863521F484E090D080E0DECF843638
:107EC00009F040C070D06FD0082F6DD080E0C81688
:107ED00080E7D80618F4F601B7BEE895C0E0D1E017
:107EE00062D089930C17E1F7F0E0CF16F0E7DF06D8
:107EF00018F0F601B7BEE89568D007B600FCFDCFD4
:107F0000A601A0E0B1E02C9130E011968C91119780
:107F100090E0982F8827822B932B1296FA010C0160
:107F200087BEE89511244E5F5F4FF1E0A038BF0790
:107F300051F7F601A7BEE89507B600FCFDCF97BE46
:107F4000E89526C08437B1F42ED02DD0F82E2BD052
:107F50003CD0F601EF2C8F010F5F1F4F84911BD097
:107F6000EA94F801C1F70894C11CD11CFA94CF0C13
:107F7000D11C0EC0853739F428D08EE10CD085E9AC
:107F80000AD08FE07ACF813511F488E018D01DD067
:107F900080E101D065CF982F8091C00085FFFCCF94
:107FA0009093C60008958091C00087FFFCCF809118
:107FB000C00084FD01C0A8958091C6000895E0E648
:107FC000F0E098E1908380830895EDDF803219F02E
:107FD00088E0F5DFFFCF84E1DECF1F93182FE3DFCA
:107FE0001150E9F7F2DF1F91089580E0E8DFEE27F6
:047FF000FF270994CA
:027FFE00040479
:0400000300007E007B
:00000001FF